{
  "contractName": "AllianceRegistry",
  "abi": [
    {
      "constant": true,
      "inputs": [
        {
          "name": "",
          "type": "address"
        }
      ],
      "name": "allianceMembers",
      "outputs": [
        {
          "name": "",
          "type": "bool"
        }
      ],
      "payable": false,
      "stateMutability": "view",
      "type": "function"
    },
    {
      "inputs": [],
      "payable": false,
      "stateMutability": "nonpayable",
      "type": "constructor"
    },
    {
      "constant": false,
      "inputs": [
        {
          "name": "_user",
          "type": "address"
        },
        {
          "name": "_tokenAddress",
          "type": "address"
        }
      ],
      "name": "createIdentity",
      "outputs": [],
      "payable": false,
      "stateMutability": "nonpayable",
      "type": "function"
    },
    {
      "constant": false,
      "inputs": [],
      "name": "addMember",
      "outputs": [],
      "payable": false,
      "stateMutability": "nonpayable",
      "type": "function"
    }
  ],
  "bytecode": "0x608060405234801561001057600080fd5b50610150806100206000396000f3006080604052600436106100565763ffffffff7c0100000000000000000000000000000000000000000000000000000000600035041663029d010d811461005b578063ad6ab6c714610072578063d10e73ab146100b4575b600080fd5b34801561006757600080fd5b506100706100e8565b005b34801561007e57600080fd5b506100a073ffffffffffffffffffffffffffffffffffffffff600435166100ea565b604080519115158252519081900360200190f35b3480156100c057600080fd5b5061007073ffffffffffffffffffffffffffffffffffffffff600435811690602435166100ff565b565b60006020819052908152604090205460ff1681565b3360009081526020819052604090205460ff16151560011461012057600080fd5b50505600a165627a7a72305820a99929083ce3e2d8adf94f5cc244d607866d3da0bc9f9fe06bba5a9fa1d8b2250029",
  "source": "pragma solidity ^0.4.24;\n\nimport \"./Identity.sol\";\n\ncontract AllianceRegistry {\n\n    mapping(address => bool ) public allianceMembers;\n\n    // mapping(bytes32 => address ) public allianceMembers;\n\n    constructor() public {}\n\n    function createIdentity(address _user, address _tokenAddress) public {\n        require(allianceMembers[msg.sender] == true);\n        // Identity a = new Identity(_user, address(this));\n\n    }\n\n\n    function addMember() public {}\n\n\n}\n",
  "sourcePath": "/workspace/projects/hackathons/enterCrypto/backend/contracts/AllianceRegistry.sol",
  "compiler": {
    "name": "solc",
    "version": "0.4.24+commit.e67f0147.Emscripten.clang"
  },
  "schemaVersion": "2.0.1",
  "updatedAt": "2018-09-08T13:40:39.058Z"
}