{
  "contractName": "AllianceRegistry",
  "abi": [
    {
      "constant": true,
      "inputs": [
        {
          "name": "",
          "type": "address"
        }
      ],
      "name": "allianceMembers",
      "outputs": [
        {
          "name": "",
          "type": "bool"
        }
      ],
      "payable": false,
      "stateMutability": "view",
      "type": "function"
    },
    {
      "inputs": [],
      "payable": false,
      "stateMutability": "nonpayable",
      "type": "constructor"
    },
    {
      "anonymous": false,
      "inputs": [
        {
          "indexed": true,
          "name": "user",
          "type": "address"
        },
        {
          "indexed": true,
          "name": "identity",
          "type": "address"
        },
        {
          "indexed": true,
          "name": "member",
          "type": "address"
        }
      ],
      "name": "IdentityCreated",
      "type": "event"
    },
    {
      "anonymous": false,
      "inputs": [
        {
          "indexed": true,
          "name": "member",
          "type": "address"
        },
        {
          "indexed": true,
          "name": "sender",
          "type": "address"
        }
      ],
      "name": "MemberAdded",
      "type": "event"
    },
    {
      "constant": false,
      "inputs": [
        {
          "name": "_user",
          "type": "address"
        },
        {
          "name": "_tokenAddress",
          "type": "address"
        }
      ],
      "name": "createIdentity",
      "outputs": [],
      "payable": true,
      "stateMutability": "payable",
      "type": "function"
    },
    {
      "constant": false,
      "inputs": [
        {
          "name": "_member",
          "type": "address"
        }
      ],
      "name": "addMember",
      "outputs": [],
      "payable": false,
      "stateMutability": "nonpayable",
      "type": "function"
    }
  ],
  "bytecode": "0x608060405234801561001057600080fd5b50336000908152602081905260409020805460ff191660011790556114238061003a6000396000f3006080604052600436106100565763ffffffff7c0100000000000000000000000000000000000000000000000000000000600035041663ad6ab6c7811461005b578063ca6d56dc14610090578063d10e73ab146100b3575b600080fd5b34801561006757600080fd5b5061007c600160a060020a03600435166100cd565b604080519115158252519081900360200190f35b34801561009c57600080fd5b506100b1600160a060020a03600435166100e2565b005b6100b1600160a060020a03600435811690602435166101d9565b60006020819052908152604090205460ff1681565b3360009081526020819052604090205460ff16151560011461018b57604080517f08c379a000000000000000000000000000000000000000000000000000000000815260206004820152602160248201527f4f6e6c7920416c6c69616e6365204d656d626572732061726520616c6c6f776560448201527f6400000000000000000000000000000000000000000000000000000000000000606482015290519081900360840190fd5b600160a060020a038116600081815260208190526040808220805460ff19166001179055513392917f6a2af11b2d73f347f9d5840aea46899e17609730b5cd91bd9c312098038acba691a350565b3360009081526020819052604081205460ff16151560011461028257604080517f08c379a000000000000000000000000000000000000000000000000000000000815260206004820152602160248201527f4f6e6c7920416c6c69616e6365204d656d626572732061726520616c6c6f776560448201527f6400000000000000000000000000000000000000000000000000000000000000606482015290519081900360840190fd5b662386f26fc1000034101561031e57604080517f08c379a000000000000000000000000000000000000000000000000000000000815260206004820152602260248201527f4d696e696d756d2070617961626c6520616d6f756e742069732072657175697260448201527f6564000000000000000000000000000000000000000000000000000000000000606482015290519081900360840190fd5b82306103286103ad565b600160a060020a03928316815291166020820152604080519182900301906000f08015801561035b573d6000803e3d6000fd5b50905033600160a060020a031681600160a060020a031684600160a060020a03167f8f2e597fd6e795e9851eea530f987cceb641315e3c7c9d484b798e3159d4209560405160405180910390a4505050565b60405161103a806103be833901905600608060408181528061103a83398101604052805160209091015160008054600160a060020a0319908116331790915560028054600160a060020a0394851690831617905560038054939092169216919091179055610fd8806100626000396000f3006080604052600436106100ae5763ffffffff7c01000000000000000000000000000000000000000000000000000000006000350416630988ca8c81146100e65780631479290e1461014f578063217fe6c6146101705780633e58c58c146101eb578063622f97301461020c57806370ae92d2146102d3578063715018a614610306578063888764c81461031b5780638da5cb5b1461033c578063d466ab6b1461036d578063f2fde38b146103f7575b60408051348152905133917f88a5966d370b9919b20f3e2c13ff65706f196a4e32cc2c12bf57088f88525874919081900360200190a2005b3480156100f257600080fd5b5060408051602060046024803582810135601f810185900485028601850190965285855261014d958335600160a060020a03169536956044949193909101919081908401838280828437509497506104189650505050505050565b005b34801561015b57600080fd5b5061014d600160a060020a0360043516610486565b34801561017c57600080fd5b5060408051602060046024803582810135601f81018590048502860185019096528585526101d7958335600160a060020a03169536956044949193909101919081908401838280828437509497506104e29650505050505050565b604080519115158252519081900360200190f35b3480156101f757600080fd5b5061014d600160a060020a03600435166104df565b34801561021857600080fd5b506040805160206004803580820135601f810184900484028501840190955284845261014d94369492936024939284019190819084018382808284375050604080516020601f60608a01358b0180359182018390048302840183018552818452989b600160a060020a038b3581169c848d01359091169b958601359a91995097506080909401955091935091820191819084018382808284375094975050508335600160a060020a0316945050506020909101359050610555565b3480156102df57600080fd5b506102f4600160a060020a036004351661099d565b60408051918252519081900360200190f35b34801561031257600080fd5b5061014d6109af565b34801561032757600080fd5b5061014d600160a060020a0360043516610a1b565b34801561034857600080fd5b50610351610a74565b60408051600160a060020a039092168252519081900360200190f35b34801561037957600080fd5b50610382610a83565b6040805160208082528351818301528351919283929083019185019080838360005b838110156103bc5781810151838201526020016103a4565b50505050905090810190601f1680156103e95780820380516001836020036101000a031916815260200191505b509250505060405180910390f35b34801561040357600080fd5b5061014d600160a060020a0360043516610aa8565b610482826001836040518082805190602001908083835b6020831061044e5780518252601f19909201916020918201910161042f565b51815160209384036101000a6000190180199092169116179052920194855250604051938490030190922092915050610ac8565b5050565b600054600160a060020a0316331461049d57600080fd5b600160a060020a03811615156104b257600080fd5b6104df81604080519081016040528060078152602001600080516020610f8d833981519152815250610add565b50565b600061054e836001846040518082805190602001908083835b6020831061051a5780518252601f1990920191602091820191016104fb565b51815160209384036101000a6000190180199092169116179052920194855250604051938490030190922092915050610bee565b9392505050565b600030878787878787600460008f600160a060020a0316600160a060020a031681526020019081526020016000206000815480929190600101919050556040516020018089600160a060020a0316600160a060020a03166c0100000000000000000000000002815260140188600160a060020a0316600160a060020a03166c0100000000000000000000000002815260140187600160a060020a0316600160a060020a03166c0100000000000000000000000002815260140186815260200185805190602001908083835b6020831061063f5780518252601f199092019160209182019101610620565b6001836020036101000a03801982511681845116808217855250505050505090500184600160a060020a0316600160a060020a03166c01000000000000000000000000028152601401838152602001828152602001985050505050505050506040516020818303038152906040526040518082805190602001908083835b602083106106dc5780518252601f1990920191602091820191016106bd565b6001836020036101000a038019825116818451168082178552505050505050905001915050604051809103902090506107158189610c0d565b151561072057600080fd5b600160a060020a03831615156107355761080f565b600160a060020a03831660011415610770576040513390618ca09084906000818181858888f19350505050151561076b57600080fd5b61080f565b604080517fa9059cbb000000000000000000000000000000000000000000000000000000008152336004820152602481018490529051600160a060020a0385169163a9059cbb9160448083019260209291908290030181600087803b1580156107d857600080fd5b505af11580156107ec573d6000803e3d6000fd5b505050506040513d602081101561080257600080fd5b5051151561080f57600080fd5b61081a868686610c60565b151561082557600080fd5b7f6d4a868d9686051f889f61dc96415c0809f248cd6ce33eb543ff445b972084fe8888888888888888604051808060200189600160a060020a0316600160a060020a0316815260200188600160a060020a0316600160a060020a031681526020018781526020018060200186600160a060020a0316600160a060020a03168152602001858152602001846000191660001916815260200183810383528b818151815260200191508051906020019080838360005b838110156108f15781810151838201526020016108d9565b50505050905090810190601f16801561091e5780820380516001836020036101000a031916815260200191505b50838103825287518152875160209182019189019080838360005b83811015610951578181015183820152602001610939565b50505050905090810190601f16801561097e5780820380516001836020036101000a031916815260200191505b509a505050505050505050505060405180910390a15050505050505050565b60046020526000908152604090205481565b600054600160a060020a031633146109c657600080fd5b60008054604051600160a060020a03909116917ff8df31144d9c2f0f6b59d69b8b98abd5459d07f2742c4df920b25aae33c6482091a26000805473ffffffffffffffffffffffffffffffffffffffff19169055565b600054600160a060020a03163314610a3257600080fd5b600160a060020a0381161515610a4757600080fd5b6104df81604080519081016040528060078152602001600080516020610f8d833981519152815250610c77565b600054600160a060020a031681565b6040805180820190915260078152600080516020610f8d833981519152602082015281565b600054600160a060020a03163314610abf57600080fd5b6104df81610d49565b610ad28282610bee565b151561048257600080fd5b610b47826001836040518082805190602001908083835b60208310610b135780518252601f199092019160209182019101610af4565b51815160209384036101000a6000190180199092169116179052920194855250604051938490030190922092915050610dc6565b81600160a060020a03167fd211483f91fc6eff862467f8de606587a30c8fc9981056f051b897a418df803a826040518080602001828103825283818151815260200191508051906020019080838360005b83811015610bb0578181015183820152602001610b98565b50505050905090810190601f168015610bdd5780820380516001836020036101000a031916815260200191505b509250505060405180910390a25050565b600160a060020a03166000908152602091909152604090205460ff1690565b600080610c2983610c1d86610de8565b9063ffffffff610e9216565b9050610c5881604080519081016040528060078152602001600080516020610f8d8339815191528152506104e2565b949350505050565b600080600083516020850186885af1949350505050565b610ce1826001836040518082805190602001908083835b60208310610cad5780518252601f199092019160209182019101610c8e565b51815160209384036101000a6000190180199092169116179052920194855250604051938490030190922092915050610f67565b81600160a060020a03167fbfec83d64eaa953f2708271a023ab9ee82057f8f3578d548c1a4ba0b5b7004898260405180806020018281038252838181518152602001915080519060200190808383600083811015610bb0578181015183820152602001610b98565b600160a060020a0381161515610d5e57600080fd5b60008054604051600160a060020a03808516939216917f8be0079c531659141344cd1fd0a4f28419497f9722a3daafe3b4186f6b6457e091a36000805473ffffffffffffffffffffffffffffffffffffffff1916600160a060020a0392909216919091179055565b600160a060020a0316600090815260209190915260409020805460ff19169055565b604080517f19457468657265756d205369676e6564204d6573736167653a0a333200000000602080830191909152603c80830185905283518084039091018152605c909201928390528151600093918291908401908083835b60208310610e605780518252601f199092019160209182019101610e41565b5181516020939093036101000a6000190180199091169216919091179052604051920182900390912095945050505050565b60008060008084516041141515610eac5760009350610f5e565b50505060208201516040830151606084015160001a601b60ff82161015610ed157601b015b8060ff16601b14158015610ee957508060ff16601c14155b15610ef75760009350610f5e565b60408051600080825260208083018085528a905260ff8516838501526060830187905260808301869052925160019360a0808501949193601f19840193928390039091019190865af1158015610f51573d6000803e3d6000fd5b5050506020604051035193505b50505092915050565b600160a060020a0316600090815260209190915260409020805460ff191660011790555600626f756e63657200000000000000000000000000000000000000000000000000a165627a7a72305820fc14947deccfabe5dfa5295854ec09728ce88f02a670d86961281b50a533f14f0029a165627a7a7230582075f0c62d1e12aafe399527f1f3f4f04d035e09131ee8c83f7003f4022a775e340029",
  "source": "pragma solidity ^0.4.24;\n\nimport \"./Identity.sol\";\n\ncontract AllianceRegistry {\n    uint constant MIN_VALUE = 10 finney;\n\n    mapping(address => bool) public allianceMembers;\n\n    event IdentityCreated (address indexed user, address indexed identity, address indexed member);\n    event MemberAdded (address indexed member, address indexed sender);\n\n    modifier membersOnly() {\n        require(allianceMembers[msg.sender] == true, \"Only Alliance Members are allowed\");\n        _;\n    }\n\n    constructor() public {\n        allianceMembers[msg.sender] = true;\n    }\n\n    function createIdentity(address _user, address _tokenAddress) public payable membersOnly() {\n        require(msg.value >= MIN_VALUE, \"Minimum payable amount is required\");\n\n        Identity idInstance = new Identity(_user, address(this));\n\n        emit IdentityCreated(_user, address(idInstance), msg.sender);\n    }\n\n    function addMember(address _member) public membersOnly() {\n        allianceMembers[_member] = true;\n\n        emit MemberAdded(_member, msg.sender);\n    }\n}\n",
  "sourcePath": "/workspace/projects/hackathons/enterCrypto/backend/contracts/AllianceRegistry.sol",
  "compiler": {
    "name": "solc",
    "version": "0.4.24+commit.e67f0147.Emscripten.clang"
  },
  "schemaVersion": "2.0.1",
  "updatedAt": "2018-09-08T17:02:27.389Z"
}