{
  "contractName": "AllianceRegistry",
  "abi": [
    {
      "constant": true,
      "inputs": [
        {
          "name": "",
          "type": "address"
        }
      ],
      "name": "allianceMembers",
      "outputs": [
        {
          "name": "",
          "type": "bool"
        }
      ],
      "payable": false,
      "stateMutability": "view",
      "type": "function"
    },
    {
      "inputs": [],
      "payable": false,
      "stateMutability": "nonpayable",
      "type": "constructor"
    },
    {
      "payable": true,
      "stateMutability": "payable",
      "type": "fallback"
    },
    {
      "anonymous": false,
      "inputs": [
        {
          "indexed": true,
          "name": "member",
          "type": "address"
        },
        {
          "indexed": false,
          "name": "value",
          "type": "uint256"
        }
      ],
      "name": "ReceivedFunds",
      "type": "event"
    },
    {
      "anonymous": false,
      "inputs": [
        {
          "indexed": true,
          "name": "user",
          "type": "address"
        },
        {
          "indexed": true,
          "name": "identity",
          "type": "address"
        },
        {
          "indexed": true,
          "name": "member",
          "type": "address"
        }
      ],
      "name": "IdentityCreated",
      "type": "event"
    },
    {
      "anonymous": false,
      "inputs": [
        {
          "indexed": true,
          "name": "member",
          "type": "address"
        },
        {
          "indexed": true,
          "name": "sender",
          "type": "address"
        }
      ],
      "name": "MemberAdded",
      "type": "event"
    },
    {
      "constant": false,
      "inputs": [
        {
          "name": "_user",
          "type": "address"
        }
      ],
      "name": "createIdentity",
      "outputs": [],
      "payable": true,
      "stateMutability": "payable",
      "type": "function"
    },
    {
      "constant": false,
      "inputs": [
        {
          "name": "_member",
          "type": "address"
        }
      ],
      "name": "addMember",
      "outputs": [],
      "payable": false,
      "stateMutability": "nonpayable",
      "type": "function"
    }
  ],
  "bytecode": "0x608060405234801561001057600080fd5b503360009081526001602081905260408220805460ff1916909117905534111561003d5760008054340190555b6113c98061004c6000396000f3006080604052600436106100565763ffffffff7c01000000000000000000000000000000000000000000000000000000006000350416635b2ab06c8114610121578063ad6ab6c714610137578063ca6d56dc1461016c575b3360009081526001602081905260409091205460ff161515146100e9576040805160e560020a62461bcd02815260206004820152602160248201527f4f6e6c7920416c6c69616e6365204d656d626572732061726520616c6c6f776560448201527f6400000000000000000000000000000000000000000000000000000000000000606482015290519081900360840190fd5b60408051348152905133917f5741979df5f3e491501da74d3b0a83dd2496ab1f34929865b3e190a8ad75859a919081900360200190a2005b610135600160a060020a036004351661018d565b005b34801561014357600080fd5b50610158600160a060020a0360043516610400565b604080519115158252519081900360200190f35b34801561017857600080fd5b50610135600160a060020a0360043516610415565b336000908152600160208190526040822054829160ff909116151514610223576040805160e560020a62461bcd02815260206004820152602160248201527f4f6e6c7920416c6c69616e6365204d656d626572732061726520616c6c6f776560448201527f6400000000000000000000000000000000000000000000000000000000000000606482015290519081900360840190fd5b6000915060003411156102bd57662386f26fc100003410156102b5576040805160e560020a62461bcd02815260206004820152602260248201527f4d696e696d756d2070617961626c6520616d6f756e742069732072657175697260448201527f6564000000000000000000000000000000000000000000000000000000000000606482015290519081900360840190fd5b34915061034f565b600054662386f26fc100001115610344576040805160e560020a62461bcd02815260206004820152603a60248201527f52756e6e696e672042616c616e636520697320726571756972656420746f206260448201527f652067726561746572207468616e20746865204d696e696d756d000000000000606482015290519081900360840190fd5b662386f26fc1000091505b82308361035a6104f9565b600160a060020a039384168152919092166020820152604080820192909252905190819003606001906000f080158015610398573d6000803e3d6000fd5b50604051909150600160a060020a0382169083156108fc029084906000818181858888f15050604051339350600160a060020a038581169350871691507f8f2e597fd6e795e9851eea530f987cceb641315e3c7c9d484b798e3159d4209590600090a4505050565b60016020526000908152604090205460ff1681565b3360009081526001602081905260409091205460ff161515146104a8576040805160e560020a62461bcd02815260206004820152602160248201527f4f6e6c7920416c6c69616e6365204d656d626572732061726520616c6c6f776560448201527f6400000000000000000000000000000000000000000000000000000000000000606482015290519081900360840190fd5b600160a060020a0381166000818152600160208190526040808320805460ff1916909217909155513392917f6a2af11b2d73f347f9d5840aea46899e17609730b5cd91bd9c312098038acba691a350565b604051610e948061050a8339019056006080604052604051606080610e9483398101604090815281516020830151919092015160008054600160a060020a0319908116331790915560018054600160a060020a0395861690831617905560028054949093169316929092179055600355610e268061006e6000396000f30060806040526004361061008c5763ffffffff7c010000000000000000000000000000000000000000000000000000000060003504166259698d81146100c45780631b52d9b81461016857806323121669146101e25780634dda969014610239578063715018a61461025157806383c5c93a146102685780638da5cb5b14610280578063f2fde38b14610295575b60408051348152905133917f88a5966d370b9919b20f3e2c13ff65706f196a4e32cc2c12bf57088f88525874919081900360200190a2005b3480156100d057600080fd5b5060408051602060046101043581810135601f8101849004840285018401909552848452610154948235600160a060020a039081169560248035831696604435841696606435966084359660a43587169660c4359660e435909116953695610124949293919092019181908401838280828437509497506102b69650505050505050565b604080519115158252519081900360200190f35b34801561017457600080fd5b5060408051602060046024803582810135601f81018590048502860185019096528585526101c69583359536956044949193909101919081908401838280828437509497506109dd9650505050505050565b60408051600160a060020a039092168252519081900360200190f35b3480156101ee57600080fd5b50610227600160a060020a03600435811690602435811690604435811690606435906084359060a43581169060c4359060e435166109ff565b60408051918252519081900360200190f35b34801561024557600080fd5b50610154600435610b13565b34801561025d57600080fd5b50610266610b4b565b005b34801561027457600080fd5b50610154600435610bb7565b34801561028c57600080fd5b506101c6610bcc565b3480156102a157600080fd5b50610266600160a060020a0360043516610bdb565b6000806000806102cc8d8d8d8d8d8d8d8d6109ff565b92506102d883866109dd565b9150600160a060020a03808316908e161461033d576040805160e560020a62461bcd02815260206004820152601160248201527f496e76616c6964205369676e6174757265000000000000000000000000000000604482015290519081900360640190fd5b604080517f23b872dd000000000000000000000000000000000000000000000000000000008152600160a060020a038f811660048301528e81166024830152604482018d90529151918d16916323b872dd916064808201926020929091908290030181600087803b1580156103b157600080fd5b505af11580156103c5573d6000803e3d6000fd5b505050506040513d60208110156103db57600080fd5b505190508015610493578b600160a060020a03168d600160a060020a03167f3b830cc6db267f2ca5cc6ee903ccfef7e72d7830952990557cccad43b5e8ad118d8d8d8d8d8d6040518087600160a060020a0316600160a060020a0316815260200186815260200185815260200184600160a060020a0316600160a060020a0316815260200183815260200182600160a060020a0316600160a060020a03168152602001965050505050505060405180910390a361053d565b8b600160a060020a03168d600160a060020a03167f75e5ab57aaaec3454cf80f515952895766ae024b6ce2fd793ffa5b5c2a530d6f8d8d8d8d8d8d6040518087600160a060020a0316600160a060020a0316815260200186815260200185815260200184600160a060020a0316600160a060020a0316815260200183815260200182600160a060020a0316600160a060020a03168152602001965050505050505060405180910390a35b60008711156109cd57600160a060020a038816151561069657600054600160a060020a038e811691161480610580575060008381526004602052604090205460ff165b15156105fc576040805160e560020a62461bcd02815260206004820152602b60248201527f5075626c697368657220686173206e6f74207369676e6564207468697320657860448201527f65637574696f6e48617368000000000000000000000000000000000000000000606482015290519081900360840190fd5b6040513390618ca09089906000818181858888f193505050501515610691576040805160e560020a62461bcd02815260206004820152603160248201527f457865637574696f6e20636f6e7472616374206661696c656420746f2070617960448201527f20657468657220746f2072656c61796572000000000000000000000000000000606482015290519081900360840190fd5b6109cd565b600160a060020a0386163014806106b45750600160a060020a038616155b1561084957600054600160a060020a038e8116911614806106e3575060008381526004602052604090205460ff165b151561075f576040805160e560020a62461bcd02815260206004820152602b60248201527f5075626c697368657220686173206e6f74207369676e6564207468697320657860448201527f65637574696f6e48617368000000000000000000000000000000000000000000606482015290519081900360840190fd5b604080517fa9059cbb000000000000000000000000000000000000000000000000000000008152336004820152602481018990529051600160a060020a038a169163a9059cbb9160448083019260209291908290030181600087803b1580156107c757600080fd5b505af11580156107db573d6000803e3d6000fd5b505050506040513d60208110156107f157600080fd5b50511515610691576040805160e560020a62461bcd02815260206004820152601d60248201527f4661696c656420746f207061792067617320617320636f6e7472616374000000604482015290519081900360640190fd5b8c600160a060020a031686600160a060020a0316141561097d57604080517f23b872dd000000000000000000000000000000000000000000000000000000008152600160a060020a038f81166004830152336024830152604482018a90529151918a16916323b872dd916064808201926020929091908290030181600087803b1580156108d557600080fd5b505af11580156108e9573d6000803e3d6000fd5b505050506040513d60208110156108ff57600080fd5b50511515610691576040805160e560020a62461bcd02815260206004820152602160248201527f4661696c656420746f20706179206761732061732066726f6d206163636f756e60448201527f7400000000000000000000000000000000000000000000000000000000000000606482015290519081900360840190fd5b6040805160e560020a62461bcd02815260206004820152601760248201527f54686520676173506179657220697320696e76616c6964000000000000000000604482015290519081900360640190fd5b9c9b505050505050505050505050565b60006109f8826109ec85610bfe565b9063ffffffff610ca816565b9392505050565b604080517f19000000000000000000000000000000000000000000000000000000000000006020808301919091526000602183018190526c010000000000000000000000003081026022850152600160a060020a03808e1682026036860152808d168202604a860152808c168202605e860152607285018b9052609285018a9052808916820260b286015260c6850188905286160260e6840152835160da81850301815260fa9093019384905282519093918291908401908083835b60208310610ada5780518252601f199092019160209182019101610abb565b5181516020939093036101000a600019018019909116921691909117905260405192018290039091209c9b505050505050505050505050565b60008054600160a060020a03163314610b2b57600080fd5b506000908152600460205260409020805460ff1916600190811790915590565b600054600160a060020a03163314610b6257600080fd5b60008054604051600160a060020a03909116917ff8df31144d9c2f0f6b59d69b8b98abd5459d07f2742c4df920b25aae33c6482091a26000805473ffffffffffffffffffffffffffffffffffffffff19169055565b60046020526000908152604090205460ff1681565b600054600160a060020a031681565b600054600160a060020a03163314610bf257600080fd5b610bfb81610d7d565b50565b604080517f19457468657265756d205369676e6564204d6573736167653a0a333200000000602080830191909152603c80830185905283518084039091018152605c909201928390528151600093918291908401908083835b60208310610c765780518252601f199092019160209182019101610c57565b5181516020939093036101000a6000190180199091169216919091179052604051920182900390912095945050505050565b60008060008084516041141515610cc25760009350610d74565b50505060208201516040830151606084015160001a601b60ff82161015610ce757601b015b8060ff16601b14158015610cff57508060ff16601c14155b15610d0d5760009350610d74565b60408051600080825260208083018085528a905260ff8516838501526060830187905260808301869052925160019360a0808501949193601f19840193928390039091019190865af1158015610d67573d6000803e3d6000fd5b5050506020604051035193505b50505092915050565b600160a060020a0381161515610d9257600080fd5b60008054604051600160a060020a03808516939216917f8be0079c531659141344cd1fd0a4f28419497f9722a3daafe3b4186f6b6457e091a36000805473ffffffffffffffffffffffffffffffffffffffff1916600160a060020a03929092169190911790555600a165627a7a72305820fbd7a5d2a53c68474ebc73f16395ec41a192e012e2a7f41fc65cab6bf71f3be60029a165627a7a72305820752391396428c19a25adf2bd793c240895635aecf222a61463de0a122060a8dd0029",
  "source": "pragma solidity ^0.4.24;\n\nimport \"./Identity.sol\";\n\ncontract AllianceRegistry {\n    uint constant MIN_VALUE = 10 finney;\n    uint256 runningBalance;\n\n    mapping(address => bool) public allianceMembers;\n\n    event ReceivedFunds (address indexed member, uint value);\n    event IdentityCreated (address indexed user, address indexed identity, address indexed member);\n    event MemberAdded (address indexed member, address indexed sender);\n\n    modifier membersOnly() {\n        require(allianceMembers[msg.sender] == true, \"Only Alliance Members are allowed\");\n        _;\n    }\n\n    constructor() public {\n        allianceMembers[msg.sender] = true;\n\n        if (msg.value > 0) {\n            runningBalance += msg.value;\n        }\n    }\n\n    function createIdentity(address _user) public payable membersOnly() {\n        uint256 amountToFund = 0;\n\n        if (msg.value > 0) {\n            require(msg.value >= MIN_VALUE, \"Minimum payable amount is required\");\n            amountToFund = msg.value;\n        } else {\n            require(runningBalance >= MIN_VALUE, \"Running Balance is required to be greater than the Minimum\");\n\n            amountToFund = MIN_VALUE;\n        }\n\n        Identity idInstance = new Identity(_user, address(this), amountToFund);\n\n        address(idInstance).send(amountToFund);\n\n        emit IdentityCreated(_user, address(idInstance), msg.sender);\n    }\n\n    function addMember(address _member) public membersOnly() {\n        allianceMembers[_member] = true;\n\n        emit MemberAdded(_member, msg.sender);\n    }\n\n    // Only alliance members can fun this\n    function () payable membersOnly() {\n        emit ReceivedFunds(msg.sender, msg.value);\n    }\n}\n",
  "sourcePath": "/workspace/projects/hackathons/enterCrypto/backend/contracts/AllianceRegistry.sol",
  "compiler": {
    "name": "solc",
    "version": "0.4.24+commit.e67f0147.Emscripten.clang"
  },
  "schemaVersion": "2.0.1",
  "updatedAt": "2018-09-08T20:45:48.846Z"
}