{
  "contractName": "CompanyA",
  "abi": [
    {
      "constant": true,
      "inputs": [],
      "name": "alpha",
      "outputs": [
        {
          "name": "",
          "type": "uint256"
        }
      ],
      "payable": false,
      "stateMutability": "pure",
      "type": "function"
    }
  ],
  "bytecode": "0x6080604052348015600f57600080fd5b5060988061001e6000396000f300608060405260043610603e5763ffffffff7c0100000000000000000000000000000000000000000000000000000000600035041663db1d0fd581146043575b600080fd5b348015604e57600080fd5b5060556067565b60408051918252519081900360200190f35b6001905600a165627a7a723058200d57ad22390d0fe486866b71487e6fec01ca4027aaf24da83c7fb0c38e2eb3b00029",
  "source": "pragma solidity ^0.4.24;\n\ncontract CompanyA {\n    function alpha() public pure returns (uint256) {\n        return 1;\n    }\n}\n",
  "sourcePath": "/workspace/projects/hackathons/enterCrypto/backend/contracts/CompanyA.sol",
  "compiler": {
    "name": "solc",
    "version": "0.4.24+commit.e67f0147.Emscripten.clang"
  },
  "schemaVersion": "2.0.1",
  "updatedAt": "2018-09-08T13:40:39.058Z"
}