{
  "contractName": "Identity",
  "abi": [
    {
      "inputs": [
        {
          "name": "_user",
          "type": "address"
        },
        {
          "name": "_registry",
          "type": "address"
        }
      ],
      "payable": true,
      "stateMutability": "payable",
      "type": "constructor"
    },
    {
      "payable": true,
      "stateMutability": "payable",
      "type": "fallback"
    },
    {
      "constant": false,
      "inputs": [
        {
          "name": "a",
          "type": "address"
        }
      ],
      "name": "send",
      "outputs": [],
      "payable": false,
      "stateMutability": "nonpayable",
      "type": "function"
    }
  ],
  "bytecode": "0x60806040818152806100d283398101604052805160209091015160008054600160a060020a03938416600160a060020a03199182161790915560018054939092169216919091179055607c806100566000396000f300608060405260043610603e5763ffffffff7c01000000000000000000000000000000000000000000000000000000006000350416633e58c58c81146040575b005b348015604b57600080fd5b50603e5600a165627a7a723058206955203993d70bf1d1090be240e6d317ed0b461aacea873475893754d62590ff0029",
  "source": "pragma solidity ^0.4.24;\n\nimport \"openzeppelin-solidity/contracts/token/ERC20/ERC20.sol\";\n\ncontract Identity {\n\n    address userAddress;\n    address registry;\n\n    constructor(address _user, address _registry) payable {\n        userAddress = _user;\n        registry = _registry;\n    }\n\n    function send(address a) public {\n\n        // ERC20 mycrypto = ERC20(a);\n\n    }\n\n    function() public payable {\n\n    }\n\n}\n",
  "sourcePath": "/workspace/projects/hackathons/enterCrypto/backend/contracts/Identity.sol",
  "compiler": {
    "name": "solc",
    "version": "0.4.24+commit.e67f0147.Emscripten.clang"
  },
  "schemaVersion": "2.0.1",
  "updatedAt": "2018-09-08T13:40:39.058Z"
}