{
  "contractName": "Identity",
  "abi": [
    {
      "constant": false,
      "inputs": [],
      "name": "renounceOwnership",
      "outputs": [],
      "payable": false,
      "stateMutability": "nonpayable",
      "type": "function"
    },
    {
      "constant": true,
      "inputs": [
        {
          "name": "",
          "type": "bytes32"
        }
      ],
      "name": "publisherSigned",
      "outputs": [
        {
          "name": "",
          "type": "bool"
        }
      ],
      "payable": false,
      "stateMutability": "view",
      "type": "function"
    },
    {
      "constant": true,
      "inputs": [],
      "name": "owner",
      "outputs": [
        {
          "name": "",
          "type": "address"
        }
      ],
      "payable": false,
      "stateMutability": "view",
      "type": "function"
    },
    {
      "constant": false,
      "inputs": [
        {
          "name": "_newOwner",
          "type": "address"
        }
      ],
      "name": "transferOwnership",
      "outputs": [],
      "payable": false,
      "stateMutability": "nonpayable",
      "type": "function"
    },
    {
      "inputs": [
        {
          "name": "_user",
          "type": "address"
        },
        {
          "name": "_registry",
          "type": "address"
        },
        {
          "name": "_fundedAmount",
          "type": "uint256"
        }
      ],
      "payable": true,
      "stateMutability": "payable",
      "type": "constructor"
    },
    {
      "payable": true,
      "stateMutability": "payable",
      "type": "fallback"
    },
    {
      "anonymous": false,
      "inputs": [
        {
          "indexed": true,
          "name": "sender",
          "type": "address"
        },
        {
          "indexed": false,
          "name": "value",
          "type": "uint256"
        }
      ],
      "name": "Received",
      "type": "event"
    },
    {
      "anonymous": false,
      "inputs": [
        {
          "indexed": true,
          "name": "from",
          "type": "address"
        },
        {
          "indexed": true,
          "name": "to",
          "type": "address"
        },
        {
          "indexed": false,
          "name": "tokenAddress",
          "type": "address"
        },
        {
          "indexed": false,
          "name": "tokenAmount",
          "type": "uint256"
        },
        {
          "indexed": false,
          "name": "periodSeconds",
          "type": "uint256"
        },
        {
          "indexed": false,
          "name": "gasToken",
          "type": "address"
        },
        {
          "indexed": false,
          "name": "gasPrice",
          "type": "uint256"
        },
        {
          "indexed": false,
          "name": "gasPayer",
          "type": "address"
        }
      ],
      "name": "ExecuteExecution",
      "type": "event"
    },
    {
      "anonymous": false,
      "inputs": [
        {
          "indexed": true,
          "name": "from",
          "type": "address"
        },
        {
          "indexed": true,
          "name": "to",
          "type": "address"
        },
        {
          "indexed": false,
          "name": "tokenAddress",
          "type": "address"
        },
        {
          "indexed": false,
          "name": "tokenAmount",
          "type": "uint256"
        },
        {
          "indexed": false,
          "name": "periodSeconds",
          "type": "uint256"
        },
        {
          "indexed": false,
          "name": "gasToken",
          "type": "address"
        },
        {
          "indexed": false,
          "name": "gasPrice",
          "type": "uint256"
        },
        {
          "indexed": false,
          "name": "gasPayer",
          "type": "address"
        }
      ],
      "name": "FailedExecuteExecution",
      "type": "event"
    },
    {
      "anonymous": false,
      "inputs": [
        {
          "indexed": true,
          "name": "previousOwner",
          "type": "address"
        }
      ],
      "name": "OwnershipRenounced",
      "type": "event"
    },
    {
      "anonymous": false,
      "inputs": [
        {
          "indexed": true,
          "name": "previousOwner",
          "type": "address"
        },
        {
          "indexed": true,
          "name": "newOwner",
          "type": "address"
        }
      ],
      "name": "OwnershipTransferred",
      "type": "event"
    },
    {
      "constant": false,
      "inputs": [
        {
          "name": "executionHash",
          "type": "bytes32"
        }
      ],
      "name": "signExecutionHash",
      "outputs": [
        {
          "name": "",
          "type": "bool"
        }
      ],
      "payable": false,
      "stateMutability": "nonpayable",
      "type": "function"
    },
    {
      "constant": true,
      "inputs": [
        {
          "name": "from",
          "type": "address"
        },
        {
          "name": "to",
          "type": "address"
        },
        {
          "name": "tokenAddress",
          "type": "address"
        },
        {
          "name": "tokenAmount",
          "type": "uint256"
        },
        {
          "name": "periodSeconds",
          "type": "uint256"
        },
        {
          "name": "gasToken",
          "type": "address"
        },
        {
          "name": "gasPrice",
          "type": "uint256"
        },
        {
          "name": "gasPayer",
          "type": "address"
        }
      ],
      "name": "getExecutionHash",
      "outputs": [
        {
          "name": "",
          "type": "bytes32"
        }
      ],
      "payable": false,
      "stateMutability": "view",
      "type": "function"
    },
    {
      "constant": true,
      "inputs": [
        {
          "name": "executionHash",
          "type": "bytes32"
        },
        {
          "name": "signature",
          "type": "bytes"
        }
      ],
      "name": "getExecutionSigner",
      "outputs": [
        {
          "name": "",
          "type": "address"
        }
      ],
      "payable": false,
      "stateMutability": "pure",
      "type": "function"
    },
    {
      "constant": false,
      "inputs": [
        {
          "name": "from",
          "type": "address"
        },
        {
          "name": "to",
          "type": "address"
        },
        {
          "name": "tokenAddress",
          "type": "address"
        },
        {
          "name": "tokenAmount",
          "type": "uint256"
        },
        {
          "name": "periodSeconds",
          "type": "uint256"
        },
        {
          "name": "gasToken",
          "type": "address"
        },
        {
          "name": "gasPrice",
          "type": "uint256"
        },
        {
          "name": "gasPayer",
          "type": "address"
        },
        {
          "name": "signature",
          "type": "bytes"
        }
      ],
      "name": "execute",
      "outputs": [
        {
          "name": "success",
          "type": "bool"
        }
      ],
      "payable": false,
      "stateMutability": "nonpayable",
      "type": "function"
    }
  ],
  "bytecode": "0x6080604052604051606080610e9483398101604090815281516020830151919092015160008054600160a060020a0319908116331790915560018054600160a060020a0395861690831617905560028054949093169316929092179055600355610e268061006e6000396000f30060806040526004361061008c5763ffffffff7c010000000000000000000000000000000000000000000000000000000060003504166259698d81146100c45780631b52d9b81461016857806323121669146101e25780634dda969014610239578063715018a61461025157806383c5c93a146102685780638da5cb5b14610280578063f2fde38b14610295575b60408051348152905133917f88a5966d370b9919b20f3e2c13ff65706f196a4e32cc2c12bf57088f88525874919081900360200190a2005b3480156100d057600080fd5b5060408051602060046101043581810135601f8101849004840285018401909552848452610154948235600160a060020a039081169560248035831696604435841696606435966084359660a43587169660c4359660e435909116953695610124949293919092019181908401838280828437509497506102b69650505050505050565b604080519115158252519081900360200190f35b34801561017457600080fd5b5060408051602060046024803582810135601f81018590048502860185019096528585526101c69583359536956044949193909101919081908401838280828437509497506109dd9650505050505050565b60408051600160a060020a039092168252519081900360200190f35b3480156101ee57600080fd5b50610227600160a060020a03600435811690602435811690604435811690606435906084359060a43581169060c4359060e435166109ff565b60408051918252519081900360200190f35b34801561024557600080fd5b50610154600435610b13565b34801561025d57600080fd5b50610266610b4b565b005b34801561027457600080fd5b50610154600435610bb7565b34801561028c57600080fd5b506101c6610bcc565b3480156102a157600080fd5b50610266600160a060020a0360043516610bdb565b6000806000806102cc8d8d8d8d8d8d8d8d6109ff565b92506102d883866109dd565b9150600160a060020a03808316908e161461033d576040805160e560020a62461bcd02815260206004820152601160248201527f496e76616c6964205369676e6174757265000000000000000000000000000000604482015290519081900360640190fd5b604080517f23b872dd000000000000000000000000000000000000000000000000000000008152600160a060020a038f811660048301528e81166024830152604482018d90529151918d16916323b872dd916064808201926020929091908290030181600087803b1580156103b157600080fd5b505af11580156103c5573d6000803e3d6000fd5b505050506040513d60208110156103db57600080fd5b505190508015610493578b600160a060020a03168d600160a060020a03167f3b830cc6db267f2ca5cc6ee903ccfef7e72d7830952990557cccad43b5e8ad118d8d8d8d8d8d6040518087600160a060020a0316600160a060020a0316815260200186815260200185815260200184600160a060020a0316600160a060020a0316815260200183815260200182600160a060020a0316600160a060020a03168152602001965050505050505060405180910390a361053d565b8b600160a060020a03168d600160a060020a03167f75e5ab57aaaec3454cf80f515952895766ae024b6ce2fd793ffa5b5c2a530d6f8d8d8d8d8d8d6040518087600160a060020a0316600160a060020a0316815260200186815260200185815260200184600160a060020a0316600160a060020a0316815260200183815260200182600160a060020a0316600160a060020a03168152602001965050505050505060405180910390a35b60008711156109cd57600160a060020a038816151561069657600054600160a060020a038e811691161480610580575060008381526004602052604090205460ff165b15156105fc576040805160e560020a62461bcd02815260206004820152602b60248201527f5075626c697368657220686173206e6f74207369676e6564207468697320657860448201527f65637574696f6e48617368000000000000000000000000000000000000000000606482015290519081900360840190fd5b6040513390618ca09089906000818181858888f193505050501515610691576040805160e560020a62461bcd02815260206004820152603160248201527f457865637574696f6e20636f6e7472616374206661696c656420746f2070617960448201527f20657468657220746f2072656c61796572000000000000000000000000000000606482015290519081900360840190fd5b6109cd565b600160a060020a0386163014806106b45750600160a060020a038616155b1561084957600054600160a060020a038e8116911614806106e3575060008381526004602052604090205460ff165b151561075f576040805160e560020a62461bcd02815260206004820152602b60248201527f5075626c697368657220686173206e6f74207369676e6564207468697320657860448201527f65637574696f6e48617368000000000000000000000000000000000000000000606482015290519081900360840190fd5b604080517fa9059cbb000000000000000000000000000000000000000000000000000000008152336004820152602481018990529051600160a060020a038a169163a9059cbb9160448083019260209291908290030181600087803b1580156107c757600080fd5b505af11580156107db573d6000803e3d6000fd5b505050506040513d60208110156107f157600080fd5b50511515610691576040805160e560020a62461bcd02815260206004820152601d60248201527f4661696c656420746f207061792067617320617320636f6e7472616374000000604482015290519081900360640190fd5b8c600160a060020a031686600160a060020a0316141561097d57604080517f23b872dd000000000000000000000000000000000000000000000000000000008152600160a060020a038f81166004830152336024830152604482018a90529151918a16916323b872dd916064808201926020929091908290030181600087803b1580156108d557600080fd5b505af11580156108e9573d6000803e3d6000fd5b505050506040513d60208110156108ff57600080fd5b50511515610691576040805160e560020a62461bcd02815260206004820152602160248201527f4661696c656420746f20706179206761732061732066726f6d206163636f756e60448201527f7400000000000000000000000000000000000000000000000000000000000000606482015290519081900360840190fd5b6040805160e560020a62461bcd02815260206004820152601760248201527f54686520676173506179657220697320696e76616c6964000000000000000000604482015290519081900360640190fd5b9c9b505050505050505050505050565b60006109f8826109ec85610bfe565b9063ffffffff610ca816565b9392505050565b604080517f19000000000000000000000000000000000000000000000000000000000000006020808301919091526000602183018190526c010000000000000000000000003081026022850152600160a060020a03808e1682026036860152808d168202604a860152808c168202605e860152607285018b9052609285018a9052808916820260b286015260c6850188905286160260e6840152835160da81850301815260fa9093019384905282519093918291908401908083835b60208310610ada5780518252601f199092019160209182019101610abb565b5181516020939093036101000a600019018019909116921691909117905260405192018290039091209c9b505050505050505050505050565b60008054600160a060020a03163314610b2b57600080fd5b506000908152600460205260409020805460ff1916600190811790915590565b600054600160a060020a03163314610b6257600080fd5b60008054604051600160a060020a03909116917ff8df31144d9c2f0f6b59d69b8b98abd5459d07f2742c4df920b25aae33c6482091a26000805473ffffffffffffffffffffffffffffffffffffffff19169055565b60046020526000908152604090205460ff1681565b600054600160a060020a031681565b600054600160a060020a03163314610bf257600080fd5b610bfb81610d7d565b50565b604080517f19457468657265756d205369676e6564204d6573736167653a0a333200000000602080830191909152603c80830185905283518084039091018152605c909201928390528151600093918291908401908083835b60208310610c765780518252601f199092019160209182019101610c57565b5181516020939093036101000a6000190180199091169216919091179052604051920182900390912095945050505050565b60008060008084516041141515610cc25760009350610d74565b50505060208201516040830151606084015160001a601b60ff82161015610ce757601b015b8060ff16601b14158015610cff57508060ff16601c14155b15610d0d5760009350610d74565b60408051600080825260208083018085528a905260ff8516838501526060830187905260808301869052925160019360a0808501949193601f19840193928390039091019190865af1158015610d67573d6000803e3d6000fd5b5050506020604051035193505b50505092915050565b600160a060020a0381161515610d9257600080fd5b60008054604051600160a060020a03808516939216917f8be0079c531659141344cd1fd0a4f28419497f9722a3daafe3b4186f6b6457e091a36000805473ffffffffffffffffffffffffffffffffffffffff1916600160a060020a03929092169190911790555600a165627a7a72305820fbd7a5d2a53c68474ebc73f16395ec41a192e012e2a7f41fc65cab6bf71f3be60029",
  "source": "pragma solidity ^0.4.24;\n\nimport \"openzeppelin-solidity/contracts/ECRecovery.sol\";\nimport \"openzeppelin-solidity/contracts/math/SafeMath.sol\";\nimport \"openzeppelin-solidity/contracts/ownership/Ownable.sol\";\nimport \"openzeppelin-solidity/contracts/token/ERC20/ERC20.sol\";\n\n\ncontract Identity is Ownable {\n    using ECRecovery for bytes32;\n    using SafeMath for uint256;\n\n    address userAddress;\n    address registry;\n    uint256 fundedAmount;\n\n    constructor(address _user, address _registry, uint256 _fundedAmount) payable {\n        userAddress = _user;\n        registry = _registry;\n        fundedAmount = _fundedAmount;\n    }\n\n    function () public payable {\n        emit Received(msg.sender, msg.value);\n    }\n\n    event Received (address indexed sender, uint value);\n    event ExecuteExecution(\n        address indexed from, //the subscriber\n        address indexed to, //the publisher\n        address tokenAddress, //the token address paid to the publisher\n        uint256 tokenAmount, //the token amount paid to the publisher\n        uint256 periodSeconds, //the period in seconds between payments\n        address gasToken, //the address of the token to pay relayer (0 for eth)\n        uint256 gasPrice, //the amount of tokens or eth to pay relayer (0 for free)\n        address gasPayer //the address that will pay the tokens to the relayer\n    );\n    event FailedExecuteExecution(\n        address indexed from, //the subscriber\n        address indexed to, //the publisher\n        address tokenAddress, //the token address paid to the publisher\n        uint256 tokenAmount, //the token amount paid to the publisher\n        uint256 periodSeconds, //the period in seconds between payments\n        address gasToken, //the address of the token to pay relayer (0 for eth)\n        uint256 gasPrice, //the amount of tokens or eth to pay relayer (0 for free)\n        address gasPayer //the address that will pay the tokens to the relayer\n    );\n\n    // for some cases of delegated execution, this contract will pay a third party\n    // to execute the transfer. If this happens, the owner of this contract must\n    // sign the executionHash\n    mapping(bytes32 => bool) public publisherSigned;\n\n    // only the owner of this contract can sign the executionHash to whitelist\n    // a specific subscription to start rewarding the relayers for paying the\n    // gas of the transactions out of the balance of this contract\n    function signExecutionHash(bytes32 executionHash)\n        public\n        onlyOwner\n        returns(bool)\n    {\n        publisherSigned[executionHash] = true;\n        return true;\n    }\n\n    // given the subscription details, generate a hash and try to kind of follow\n    // the eip-191 standard and eip-1077 standard from my dude @avsa\n    function getExecutionHash(\n        address from, //the subscriber\n        address to, //the publisher\n        address tokenAddress, //the token address paid to the publisher\n        uint256 tokenAmount, //the token amount paid to the publisher\n        uint256 periodSeconds, //the period in seconds between payments\n        address gasToken, //the address of the token to pay relayer (0 for eth)\n        uint256 gasPrice, //the amount of tokens or eth to pay relayer (0 for free)\n        address gasPayer //the address that will pay the tokens to the relayer\n    )\n        public\n        view\n        returns (bytes32)\n    {\n        return keccak256(\n            abi.encodePacked(\n                byte(0x19),\n                byte(0),\n                address(this),\n                from,\n                to,\n                tokenAddress,\n                tokenAmount,\n                periodSeconds,\n                gasToken,\n                gasPrice,\n                gasPayer\n        ));\n    }\n\n    //ecrecover the signer from hash and the signature\n    function getExecutionSigner(\n        bytes32 executionHash, //hash of subscription\n        bytes signature //proof the subscriber signed the meta trasaction\n    )\n        public\n        pure\n        returns (address)\n    {\n        return executionHash.toEthSignedMessageHash().recover(signature);\n    }\n\n    // execute the transferFrom to pay the publisher from the subscriber\n    // the subscriber has full control by approving this contract an allowance\n    function execute(\n        address from, //the subscriber\n        address to, //the publisher\n        address tokenAddress, //the token address paid to the publisher\n        uint256 tokenAmount, //the token amount paid to the publisher\n        uint256 periodSeconds, //the period in seconds between payments\n        address gasToken, //the address of the token to pay relayer (0 for eth)\n        uint256 gasPrice, //the amount of tokens or eth to pay relayer (0 for free)\n        address gasPayer, //the address that will pay the tokens to the relayer\n        bytes signature //proof the subscriber signed the meta trasaction\n    )\n        public\n        returns (bool success)\n    {\n        // make sure the subscription is valid and ready\n        // pulled this out so I have the hash, should be exact code as \"isExecutionReady\"\n        bytes32 executionHash = getExecutionHash(\n            from, to, tokenAddress, tokenAmount, periodSeconds, gasToken, gasPrice, gasPayer\n        );\n        address signer = getExecutionSigner(executionHash, signature);\n\n        //the signature must be valid\n        require(signer == from, \"Invalid Signature\");\n\n        // now, let make the transfer from the subscriber to the publisher\n        bool result = ERC20(tokenAddress).transferFrom(from,to,tokenAmount);\n        if (result) {\n            emit ExecuteExecution(\n                from, to, tokenAddress, tokenAmount, periodSeconds, gasToken, gasPrice, gasPayer\n            );\n        } else {\n            emit FailedExecuteExecution(\n                from, to, tokenAddress, tokenAmount, periodSeconds, gasToken, gasPrice, gasPayer\n            );\n        }\n\n        // it is possible for the subscription execution to be run by a third party\n        // incentivized in the terms of the subscription with a gasToken and gasPrice\n        // pay that out now...\n        if (gasPrice > 0) {\n            if (gasToken == address(0)) {\n                // this is an interesting case where the service will pay the third party\n                // ethereum out of the subscription contract itself\n                // for this to work the publisher must send ethereum to the contract\n                require(\n                    from == owner || publisherSigned[executionHash],\n                    \"Publisher has not signed this executionHash\"\n                );\n\n                require(msg.sender.call.value(gasPrice).gas(36000)(),//still unsure about how much gas to use here\n                        \"Execution contract failed to pay ether to relayer\"\n                );\n            } else if (gasPayer == address(this) || gasPayer == address(0)) {\n                // in this case, this contract will pay a token to the relayer to\n                // incentivize them to pay the gas for the meta transaction\n                // for security, the publisher must have signed the executionHash\n                require(from == owner || publisherSigned[executionHash],\n                        \"Publisher has not signed this executionHash\"\n                );\n\n                require(ERC20(gasToken).transfer(msg.sender, gasPrice),\n                        \"Failed to pay gas as contract\"\n                );\n            } else if (gasPayer == from) {\n                // in this case the relayer is paid with a token from the subscriber\n                // this works best if it is the same token being transferred to the\n                // publisher because it is already in the allowance\n                require(\n                    ERC20(gasToken).transferFrom(from, msg.sender, gasPrice),\n                    \"Failed to pay gas as from account\"\n                );\n            } else {\n                // the subscriber could craft the gasPayer to be a fellow subscriber that\n                // that has approved this contract to move tokens and then exploit that\n                // don't allow that...\n                revert(\"The gasPayer is invalid\");\n                // on the other hand it might be really cool to allow *any* account to\n                // pay the third party as long as they have approved this contract\n                // AND the publisher has signed off on it. The downside would be a\n                // publisher not paying attention and signs a subscription that attacks\n                // a different subscriber\n            }\n        }\n\n        return result;\n    }\n}\n",
  "sourcePath": "/workspace/projects/hackathons/enterCrypto/backend/contracts/Identity.sol",
  "compiler": {
    "name": "solc",
    "version": "0.4.24+commit.e67f0147.Emscripten.clang"
  },
  "schemaVersion": "2.0.1",
  "updatedAt": "2018-09-08T20:45:48.850Z"
}