{
  "contractName": "SignatureValidator",
  "abi": [
    {
      "constant": true,
      "inputs": [
        {
          "name": "_messageHash",
          "type": "bytes32"
        },
        {
          "name": "_r",
          "type": "bytes32"
        },
        {
          "name": "_s",
          "type": "bytes32"
        },
        {
          "name": "_v",
          "type": "uint8"
        },
        {
          "name": "userAddress",
          "type": "address"
        }
      ],
      "name": "checkSignature",
      "outputs": [
        {
          "name": "",
          "type": "bool"
        }
      ],
      "payable": false,
      "stateMutability": "pure",
      "type": "function"
    },
    {
      "constant": true,
      "inputs": [
        {
          "name": "_messageHash",
          "type": "bytes32"
        },
        {
          "name": "_r",
          "type": "bytes32"
        },
        {
          "name": "_s",
          "type": "bytes32"
        },
        {
          "name": "_v",
          "type": "uint8"
        }
      ],
      "name": "recoverAddress",
      "outputs": [
        {
          "name": "",
          "type": "address"
        }
      ],
      "payable": false,
      "stateMutability": "pure",
      "type": "function"
    }
  ],
  "bytecode": "0x608060405234801561001057600080fd5b506101cd806100206000396000f30060806040526004361061004b5763ffffffff7c01000000000000000000000000000000000000000000000000000000006000350416630138f623811461005057806318182e26146100a1575b600080fd5b34801561005c57600080fd5b5061008d60043560243560443560ff6064351673ffffffffffffffffffffffffffffffffffffffff608435166100ee565b604080519115158252519081900360200190f35b3480156100ad57600080fd5b506100c560043560243560443560ff60643516610134565b6040805173ffffffffffffffffffffffffffffffffffffffff9092168252519081900360200190f35b60008173ffffffffffffffffffffffffffffffffffffffff1661011387878787610134565b73ffffffffffffffffffffffffffffffffffffffff16149695505050505050565b604080516000808252602080830180855288905260ff85168385015260608301879052608083018690529251909260019260a080820193601f198101928190039091019086865af115801561018d573d6000803e3d6000fd5b5050604051601f19015196955050505050505600a165627a7a7230582016c2a56575ddbe27e62f44f716face7adf8de6ed26203beedbf603ce8033be850029",
  "source": "pragma solidity ^0.4.24;\n\n\ncontract SignatureValidator {\n\n\n    function checkSignature(bytes32 _messageHash, bytes32 _r, bytes32 _s, uint8 _v, address userAddress)\n     public pure returns (bool) {\n        return recoverAddress(_messageHash,  _r, _s, _v) == userAddress;\n    }\n\n\n    function recoverAddress(bytes32 _messageHash, bytes32 _r, bytes32 _s, uint8 _v)\n     public pure returns (address) {\n        return ecrecover(_messageHash, _v, _r, _s);\n    }\n\n\n}\n",
  "sourcePath": "/workspace/projects/hackathons/enterCrypto/backend/contracts/SignatureValidator.sol",
  "compiler": {
    "name": "solc",
    "version": "0.4.24+commit.e67f0147.Emscripten.clang"
  },
  "schemaVersion": "2.0.1",
  "updatedAt": "2018-09-08T13:40:39.058Z"
}