{
  "contractName": "SignatureValidator",
  "abi": [
    {
      "constant": true,
      "inputs": [
        {
          "name": "_messageHash",
          "type": "bytes32"
        },
        {
          "name": "_r",
          "type": "bytes32"
        },
        {
          "name": "_s",
          "type": "bytes32"
        },
        {
          "name": "_v",
          "type": "uint8"
        },
        {
          "name": "userAddress",
          "type": "address"
        }
      ],
      "name": "checkSignature",
      "outputs": [
        {
          "name": "",
          "type": "bool"
        }
      ],
      "payable": false,
      "stateMutability": "pure",
      "type": "function"
    }
  ],
  "bytecode": "0x608060405234801561001057600080fd5b50610175806100206000396000f3006080604052600436106100405763ffffffff7c01000000000000000000000000000000000000000000000000000000006000350416630138f6238114610045575b600080fd5b34801561005157600080fd5b5061008260043560243560443560ff6064351673ffffffffffffffffffffffffffffffffffffffff60843516610096565b604080519115158252519081900360200190f35b60008173ffffffffffffffffffffffffffffffffffffffff166100bb878787876100dc565b73ffffffffffffffffffffffffffffffffffffffff16149695505050505050565b604080516000808252602080830180855288905260ff85168385015260608301879052608083018690529251909260019260a080820193601f198101928190039091019086865af1158015610135573d6000803e3d6000fd5b5050604051601f19015196955050505050505600a165627a7a72305820ef3dc9935805ea8abcb7eb7c713ddfb219117da262e564c988d66b507c28d1120029",
  "source": "pragma solidity ^0.4.24;\n\ncontract SignatureValidator {\n    function checkSignature(bytes32 _messageHash, bytes32 _r, bytes32 _s, uint8 _v, address userAddress)\n    public pure returns (bool) {\n        return recoverAddress(_messageHash,  _r, _s, _v) == userAddress;\n    }\n\n    function recoverAddress(bytes32 _messageHash, bytes32 _r, bytes32 _s, uint8 _v)\n    internal pure returns (address) {\n        return ecrecover(_messageHash, _v, _r, _s);\n    }\n}\n",
  "sourcePath": "/Users/ali/enter-crypto/contracts/SignatureValidator.sol",
  "compiler": {
    "name": "solc",
    "version": "0.4.24+commit.e67f0147.Emscripten.clang"
  },
  "schemaVersion": "2.0.1",
  "updatedAt": "2018-09-08T22:48:47.988Z"
}